{
  "_format": "hh-sol-artifact-1",
  "contractName": "Lottery",
  "sourceName": "contracts/lottery.sol",
  "abi": [
    {
      "inputs": [],
      "stateMutability": "nonpayable",
      "type": "constructor"
    },
    {
      "inputs": [],
      "name": "allPlayers",
      "outputs": [
        {
          "internalType": "address payable[]",
          "name": "",
          "type": "address[]"
        }
      ],
      "stateMutability": "view",
      "type": "function"
    },
    {
      "inputs": [],
      "name": "getBalance",
      "outputs": [
        {
          "internalType": "uint256",
          "name": "",
          "type": "uint256"
        }
      ],
      "stateMutability": "view",
      "type": "function"
    },
    {
      "inputs": [],
      "name": "pickWinner",
      "outputs": [],
      "stateMutability": "nonpayable",
      "type": "function"
    },
    {
      "inputs": [
        {
          "internalType": "uint256",
          "name": "",
          "type": "uint256"
        }
      ],
      "name": "players",
      "outputs": [
        {
          "internalType": "address payable",
          "name": "",
          "type": "address"
        }
      ],
      "stateMutability": "view",
      "type": "function"
    },
    {
      "stateMutability": "payable",
      "type": "receive"
    }
  ],
  "bytecode": "0x608060405234801561001057600080fd5b5033600160006101000a81548173ffffffffffffffffffffffffffffffffffffffff021916908373ffffffffffffffffffffffffffffffffffffffff160217905550610b93806100616000396000f3fe6080604052600436106100435760003560e01c806312065fe0146100fb5780635d495aea14610126578063b0ec80941461013d578063f71d96cb14610168576100f6565b366100f657662386f26fc100003414610091576040517f08c379a000000000000000000000000000000000000000000000000000000000815260040161008890610984565b60405180910390fd5b6000339080600181540180825580915050600190039060005260206000200160009091909190916101000a81548173ffffffffffffffffffffffffffffffffffffffff021916908373ffffffffffffffffffffffffffffffffffffffff160217905550005b600080fd5b34801561010757600080fd5b506101106101a5565b60405161011d91906109c4565b60405180910390f35b34801561013257600080fd5b5061013b61023d565b005b34801561014957600080fd5b506101526104d5565b60405161015f9190610922565b60405180910390f35b34801561017457600080fd5b5061018f600480360381019061018a91906106aa565b610563565b60405161019c9190610907565b60405180910390f35b60003373ffffffffffffffffffffffffffffffffffffffff16600160009054906101000a900473ffffffffffffffffffffffffffffffffffffffff1673ffffffffffffffffffffffffffffffffffffffff1614610237576040517f08c379a000000000000000000000000000000000000000000000000000000000815260040161022e90610944565b60405180910390fd5b47905090565b600160009054906101000a900473ffffffffffffffffffffffffffffffffffffffff1673ffffffffffffffffffffffffffffffffffffffff163373ffffffffffffffffffffffffffffffffffffffff16146102cd576040517f08c379a00000000000000000000000000000000000000000000000000000000081526004016102c4906109a4565b60405180910390fd5b60016000805490501015610316576040517f08c379a000000000000000000000000000000000000000000000000000000000815260040161030d90610964565b60405180910390fd5b60006103206105a2565b905060008080549050826103349190610ab7565b905060008181548110610370577f4e487b7100000000000000000000000000000000000000000000000000000000600052603260045260246000fd5b9060005260206000200160009054906101000a900473ffffffffffffffffffffffffffffffffffffffff16600260006101000a81548173ffffffffffffffffffffffffffffffffffffffff021916908373ffffffffffffffffffffffffffffffffffffffff160217905550600260009054906101000a900473ffffffffffffffffffffffffffffffffffffffff1673ffffffffffffffffffffffffffffffffffffffff166108fc61041f6101a5565b9081150290604051600060405180830381858888f1935050505015801561044a573d6000803e3d6000fd5b50600067ffffffffffffffff81111561048c577f4e487b7100000000000000000000000000000000000000000000000000000000600052604160045260246000fd5b6040519080825280602002602001820160405280156104ba5781602001602082028036833780820191505090505b50600090805190602001906104d09291906105ee565b505050565b6060600080548060200260200160405190810160405280929190818152602001828054801561055957602002820191906000526020600020905b8160009054906101000a900473ffffffffffffffffffffffffffffffffffffffff1673ffffffffffffffffffffffffffffffffffffffff168152602001906001019080831161050f575b5050505050905090565b6000818154811061057357600080fd5b906000526020600020016000915054906101000a900473ffffffffffffffffffffffffffffffffffffffff1681565b6000806001436105b29190610a29565b40905080426000805490506040516020016105cf939291906108ca565b6040516020818303038152906040528051906020012060001c91505090565b828054828255906000526020600020908101928215610667579160200282015b828111156106665782518260006101000a81548173ffffffffffffffffffffffffffffffffffffffff021916908373ffffffffffffffffffffffffffffffffffffffff1602179055509160200191906001019061060e565b5b5090506106749190610678565b5090565b5b80821115610691576000816000905550600101610679565b5090565b6000813590506106a481610b46565b92915050565b6000602082840312156106bc57600080fd5b60006106ca84828501610695565b91505092915050565b60006106df83836106eb565b60208301905092915050565b6106f481610a5d565b82525050565b61070381610a5d565b82525050565b6000610714826109ef565b61071e8185610a07565b9350610729836109df565b8060005b8381101561075a57815161074188826106d3565b975061074c836109fa565b92505060018101905061072d565b5085935050505092915050565b61077861077382610a6f565b610aa3565b82525050565b600061078b601e83610a18565b91507f596f7520617265206e6f742074686520636f6e7472616374206f776e657200006000830152602082019050919050565b60006107cb601283610a18565b91507f6e6f7420656e6f75676820706c617965727300000000000000000000000000006000830152602082019050919050565b600061080b602f83610a18565b91507f706c656173652070617920302e3030312065746820746f2067657420796f757260008301527f73656c66207265676973746572656400000000000000000000000000000000006020830152604082019050919050565b6000610871601783610a18565b91507f596f7520617265206e6f7420746865206d616e616765720000000000000000006000830152602082019050919050565b6108ad81610a99565b82525050565b6108c46108bf82610a99565b610aad565b82525050565b60006108d68286610767565b6020820191506108e682856108b3565b6020820191506108f682846108b3565b602082019150819050949350505050565b600060208201905061091c60008301846106fa565b92915050565b6000602082019050818103600083015261093c8184610709565b905092915050565b6000602082019050818103600083015261095d8161077e565b9050919050565b6000602082019050818103600083015261097d816107be565b9050919050565b6000602082019050818103600083015261099d816107fe565b9050919050565b600060208201905081810360008301526109bd81610864565b9050919050565b60006020820190506109d960008301846108a4565b92915050565b6000819050602082019050919050565b600081519050919050565b6000602082019050919050565b600082825260208201905092915050565b600082825260208201905092915050565b6000610a3482610a99565b9150610a3f83610a99565b925082821015610a5257610a51610ae8565b5b828203905092915050565b6000610a6882610a79565b9050919050565b6000819050919050565b600073ffffffffffffffffffffffffffffffffffffffff82169050919050565b6000819050919050565b6000819050919050565b6000819050919050565b6000610ac282610a99565b9150610acd83610a99565b925082610add57610adc610b17565b5b828206905092915050565b7f4e487b7100000000000000000000000000000000000000000000000000000000600052601160045260246000fd5b7f4e487b7100000000000000000000000000000000000000000000000000000000600052601260045260246000fd5b610b4f81610a99565b8114610b5a57600080fd5b5056fea2646970667358221220de03c1486d7d1d05fdd24e87ad84576c50b7c8ad154c39b1d8e1feb64317ee5064736f6c63430008000033",
  "linkReferences": {},
  "deployedLinkReferences": {}
}