{
  "address": "0xB9917AD0F25f44572aAB15121d67c3B4C7C78C0c",
  "abi": [
    {
      "inputs": [
        {
          "internalType": "address",
          "name": "priceFeedAddress",
          "type": "address"
        }
      ],
      "stateMutability": "nonpayable",
      "type": "constructor"
    },
    {
      "stateMutability": "payable",
      "type": "fallback"
    },
    {
      "inputs": [
        {
          "internalType": "address",
          "name": "",
          "type": "address"
        }
      ],
      "name": "addresstofundedAmount",
      "outputs": [
        {
          "internalType": "uint256",
          "name": "",
          "type": "uint256"
        }
      ],
      "stateMutability": "view",
      "type": "function"
    },
    {
      "inputs": [],
      "name": "fund",
      "outputs": [],
      "stateMutability": "payable",
      "type": "function"
    },
    {
      "inputs": [
        {
          "internalType": "uint256",
          "name": "",
          "type": "uint256"
        }
      ],
      "name": "funders",
      "outputs": [
        {
          "internalType": "address",
          "name": "",
          "type": "address"
        }
      ],
      "stateMutability": "view",
      "type": "function"
    },
    {
      "inputs": [],
      "name": "minimumUSD",
      "outputs": [
        {
          "internalType": "uint256",
          "name": "",
          "type": "uint256"
        }
      ],
      "stateMutability": "view",
      "type": "function"
    },
    {
      "inputs": [],
      "name": "owner",
      "outputs": [
        {
          "internalType": "address",
          "name": "",
          "type": "address"
        }
      ],
      "stateMutability": "view",
      "type": "function"
    },
    {
      "inputs": [],
      "name": "priceFeed",
      "outputs": [
        {
          "internalType": "contract AggregatorV3Interface",
          "name": "",
          "type": "address"
        }
      ],
      "stateMutability": "view",
      "type": "function"
    },
    {
      "inputs": [],
      "name": "withdraw",
      "outputs": [],
      "stateMutability": "nonpayable",
      "type": "function"
    },
    {
      "stateMutability": "payable",
      "type": "receive"
    }
  ],
  "transactionHash": "0x57543bfcaa6a230af44b7895d7424a20139cc426b2b9af84bf59be189f8da270",
  "args": [
    "0x694AA1769357215DE4FAC081bf1f309aDC325306"
  ],
  "numDeployments": 1,
  "solcInputHash": "0f280649c9d3605150dbea6ec8b1b10d",
  "bytecode": "0x60806040526802b5e3af16b188000060005534801561001d57600080fd5b5060405162001054380380620010548339818101604052810190610041919061012c565b33600360006101000a81548173ffffffffffffffffffffffffffffffffffffffff021916908373ffffffffffffffffffffffffffffffffffffffff16021790555080600160006101000a81548173ffffffffffffffffffffffffffffffffffffffff021916908373ffffffffffffffffffffffffffffffffffffffff16021790555050610159565b600080fd5b600073ffffffffffffffffffffffffffffffffffffffff82169050919050565b60006100f9826100ce565b9050919050565b610109816100ee565b811461011457600080fd5b50565b60008151905061012681610100565b92915050565b600060208284031215610142576101416100c9565b5b600061015084828501610117565b91505092915050565b610eeb80620001696000396000f3fe6080604052600436106100745760003560e01c80638da5cb5b1161004e5780638da5cb5b146100fa578063a2214dec14610125578063b60d428814610162578063dc0d3dff1461016c57610083565b80633430a88c1461008d5780633ccfd60b146100b8578063741bef1a146100cf57610083565b36610083576100816101a9565b005b61008b6101a9565b005b34801561009957600080fd5b506100a26102dc565b6040516100af919061076d565b60405180910390f35b3480156100c457600080fd5b506100cd6102e2565b005b3480156100db57600080fd5b506100e461052e565b6040516100f19190610807565b60405180910390f35b34801561010657600080fd5b5061010f610554565b60405161011c9190610843565b60405180910390f35b34801561013157600080fd5b5061014c6004803603810190610147919061088f565b61057a565b604051610159919061076d565b60405180910390f35b61016a6101a9565b005b34801561017857600080fd5b50610193600480360381019061018e91906108e8565b610592565b6040516101a09190610843565b60405180910390f35b6000546101e1600160009054906101000a900473ffffffffffffffffffffffffffffffffffffffff16346105d190919063ffffffff16565b11610221576040517f08c379a000000000000000000000000000000000000000000000000000000000815260040161021890610972565b60405180910390fd5b6002339080600181540180825580915050600190039060005260206000200160009091909190916101000a81548173ffffffffffffffffffffffffffffffffffffffff021916908373ffffffffffffffffffffffffffffffffffffffff16021790555034600460003373ffffffffffffffffffffffffffffffffffffffff1673ffffffffffffffffffffffffffffffffffffffff16815260200190815260200160002060008282546102d391906109c1565b92505081905550565b60005481565b600360009054906101000a900473ffffffffffffffffffffffffffffffffffffffff1673ffffffffffffffffffffffffffffffffffffffff163373ffffffffffffffffffffffffffffffffffffffff1614610372576040517f08c379a000000000000000000000000000000000000000000000000000000000815260040161036990610a63565b60405180910390fd5b60005b60028054905081101561052b5760006002828154811061039857610397610a83565b5b9060005260206000200160009054906101000a900473ffffffffffffffffffffffffffffffffffffffff1690506000600460008373ffffffffffffffffffffffffffffffffffffffff1673ffffffffffffffffffffffffffffffffffffffff16815260200190815260200160002081905550600067ffffffffffffffff81111561042557610424610ab2565b5b6040519080825280602002602001820160405280156104535781602001602082028036833780820191505090505b50600290805190602001906104699291906106ad565b5060003373ffffffffffffffffffffffffffffffffffffffff164760405161049090610b12565b60006040518083038185875af1925050503d80600081146104cd576040519150601f19603f3d011682016040523d82523d6000602084013e6104d2565b606091505b5050905080610516576040517f08c379a000000000000000000000000000000000000000000000000000000000815260040161050d90610b73565b60405180910390fd5b5050808061052390610b93565b915050610375565b50565b600160009054906101000a900473ffffffffffffffffffffffffffffffffffffffff1681565b600360009054906101000a900473ffffffffffffffffffffffffffffffffffffffff1681565b60046020528060005260406000206000915090505481565b600281815481106105a257600080fd5b906000526020600020016000915054906101000a900473ffffffffffffffffffffffffffffffffffffffff1681565b6000806105dd8361060d565b90506000670de0b6b3a764000085836105f69190610bdc565b6106009190610c65565b9050809250505092915050565b6000808273ffffffffffffffffffffffffffffffffffffffff1663feaf968c6040518163ffffffff1660e01b815260040160a06040518083038186803b15801561065657600080fd5b505afa15801561066a573d6000803e3d6000fd5b505050506040513d601f19601f8201168201806040525081019061068e9190610d23565b5050509150506402540be400816106a59190610d9e565b915050919050565b828054828255906000526020600020908101928215610726579160200282015b828111156107255782518260006101000a81548173ffffffffffffffffffffffffffffffffffffffff021916908373ffffffffffffffffffffffffffffffffffffffff160217905550916020019190600101906106cd565b5b5090506107339190610737565b5090565b5b80821115610750576000816000905550600101610738565b5090565b6000819050919050565b61076781610754565b82525050565b6000602082019050610782600083018461075e565b92915050565b600073ffffffffffffffffffffffffffffffffffffffff82169050919050565b6000819050919050565b60006107cd6107c86107c384610788565b6107a8565b610788565b9050919050565b60006107df826107b2565b9050919050565b60006107f1826107d4565b9050919050565b610801816107e6565b82525050565b600060208201905061081c60008301846107f8565b92915050565b600061082d82610788565b9050919050565b61083d81610822565b82525050565b60006020820190506108586000830184610834565b92915050565b600080fd5b61086c81610822565b811461087757600080fd5b50565b60008135905061088981610863565b92915050565b6000602082840312156108a5576108a461085e565b5b60006108b38482850161087a565b91505092915050565b6108c581610754565b81146108d057600080fd5b50565b6000813590506108e2816108bc565b92915050565b6000602082840312156108fe576108fd61085e565b5b600061090c848285016108d3565b91505092915050565b600082825260208201905092915050565b7f4469646e2774206d61746368206d696e696d756d20416d6f756e742000000000600082015250565b600061095c601c83610915565b915061096782610926565b602082019050919050565b6000602082019050818103600083015261098b8161094f565b9050919050565b7f4e487b7100000000000000000000000000000000000000000000000000000000600052601160045260246000fd5b60006109cc82610754565b91506109d783610754565b9250827fffffffffffffffffffffffffffffffffffffffffffffffffffffffffffffffff03821115610a0c57610a0b610992565b5b828201905092915050565b7f796f752061696e7420746865204f776e65720000000000000000000000000000600082015250565b6000610a4d601283610915565b9150610a5882610a17565b602082019050919050565b60006020820190508181036000830152610a7c81610a40565b9050919050565b7f4e487b7100000000000000000000000000000000000000000000000000000000600052603260045260246000fd5b7f4e487b7100000000000000000000000000000000000000000000000000000000600052604160045260246000fd5b600081905092915050565b50565b6000610afc600083610ae1565b9150610b0782610aec565b600082019050919050565b6000610b1d82610aef565b9150819050919050565b7f63616c6c206661696c6564000000000000000000000000000000000000000000600082015250565b6000610b5d600b83610915565b9150610b6882610b27565b602082019050919050565b60006020820190508181036000830152610b8c81610b50565b9050919050565b6000610b9e82610754565b91507fffffffffffffffffffffffffffffffffffffffffffffffffffffffffffffffff821415610bd157610bd0610992565b5b600182019050919050565b6000610be782610754565b9150610bf283610754565b9250817fffffffffffffffffffffffffffffffffffffffffffffffffffffffffffffffff0483118215151615610c2b57610c2a610992565b5b828202905092915050565b7f4e487b7100000000000000000000000000000000000000000000000000000000600052601260045260246000fd5b6000610c7082610754565b9150610c7b83610754565b925082610c8b57610c8a610c36565b5b828204905092915050565b600069ffffffffffffffffffff82169050919050565b610cb581610c96565b8114610cc057600080fd5b50565b600081519050610cd281610cac565b92915050565b6000819050919050565b610ceb81610cd8565b8114610cf657600080fd5b50565b600081519050610d0881610ce2565b92915050565b600081519050610d1d816108bc565b92915050565b600080600080600060a08688031215610d3f57610d3e61085e565b5b6000610d4d88828901610cc3565b9550506020610d5e88828901610cf9565b9450506040610d6f88828901610d0e565b9350506060610d8088828901610d0e565b9250506080610d9188828901610cc3565b9150509295509295909350565b6000610da982610cd8565b9150610db483610cd8565b9250827f7fffffffffffffffffffffffffffffffffffffffffffffffffffffffffffffff0482116000841360008413161615610df357610df2610992565b5b817f80000000000000000000000000000000000000000000000000000000000000000583126000841260008413161615610e3057610e2f610992565b5b827f80000000000000000000000000000000000000000000000000000000000000000582126000841360008412161615610e6d57610e6c610992565b5b827f7fffffffffffffffffffffffffffffffffffffffffffffffffffffffffffffff0582126000841260008412161615610eaa57610ea9610992565b5b82820290509291505056fea26469706673582212206c638403933b9d4e7e5e7c12b3eabe0784acdd73c767c7ad896623b2c96f806164736f6c63430008080033",
  "devdoc": {
    "kind": "dev",
    "methods": {},
    "version": 1
  },
  "userdoc": {
    "kind": "user",
    "methods": {},
    "version": 1
  },
  "storageLayout": {
    "storage": [
      {
        "astId": 56,
        "contract": "contracts/FundMe.sol:FundMe",
        "label": "minimumUSD",
        "offset": 0,
        "slot": "0",
        "type": "t_uint256"
      },
      {
        "astId": 59,
        "contract": "contracts/FundMe.sol:FundMe",
        "label": "priceFeed",
        "offset": 0,
        "slot": "1",
        "type": "t_contract(AggregatorV3Interface)45"
      },
      {
        "astId": 62,
        "contract": "contracts/FundMe.sol:FundMe",
        "label": "funders",
        "offset": 0,
        "slot": "2",
        "type": "t_array(t_address)dyn_storage"
      },
      {
        "astId": 64,
        "contract": "contracts/FundMe.sol:FundMe",
        "label": "owner",
        "offset": 0,
        "slot": "3",
        "type": "t_address"
      },
      {
        "astId": 68,
        "contract": "contracts/FundMe.sol:FundMe",
        "label": "addresstofundedAmount",
        "offset": 0,
        "slot": "4",
        "type": "t_mapping(t_address,t_uint256)"
      }
    ],
    "types": {
      "t_address": {
        "encoding": "inplace",
        "label": "address",
        "numberOfBytes": "20"
      },
      "t_array(t_address)dyn_storage": {
        "base": "t_address",
        "encoding": "dynamic_array",
        "label": "address[]",
        "numberOfBytes": "32"
      },
      "t_contract(AggregatorV3Interface)45": {
        "encoding": "inplace",
        "label": "contract AggregatorV3Interface",
        "numberOfBytes": "20"
      },
      "t_mapping(t_address,t_uint256)": {
        "encoding": "mapping",
        "key": "t_address",
        "label": "mapping(address => uint256)",
        "numberOfBytes": "32",
        "value": "t_uint256"
      },
      "t_uint256": {
        "encoding": "inplace",
        "label": "uint256",
        "numberOfBytes": "32"
      }
    }
  }
}