{
  "_format": "hh-sol-artifact-1",
  "contractName": "Raffle",
  "sourceName": "contracts/raffle.sol",
  "abi": [
    {
      "inputs": [
        {
          "internalType": "address",
          "name": "vrfCoordinatorV2",
          "type": "address"
        },
        {
          "internalType": "uint256",
          "name": "entranceFee",
          "type": "uint256"
        },
        {
          "internalType": "bytes32",
          "name": "gasLane",
          "type": "bytes32"
        },
        {
          "internalType": "uint64",
          "name": "subscriptionId",
          "type": "uint64"
        },
        {
          "internalType": "uint32",
          "name": "callbackGasLimit",
          "type": "uint32"
        },
        {
          "internalType": "uint256",
          "name": "interval",
          "type": "uint256"
        }
      ],
      "stateMutability": "nonpayable",
      "type": "constructor"
    },
    {
      "inputs": [
        {
          "internalType": "address",
          "name": "have",
          "type": "address"
        },
        {
          "internalType": "address",
          "name": "want",
          "type": "address"
        }
      ],
      "name": "OnlyCoordinatorCanFulfill",
      "type": "error"
    },
    {
      "inputs": [],
      "name": "Raffle_NotEnoughETh",
      "type": "error"
    },
    {
      "inputs": [],
      "name": "Raffle_NotOpen",
      "type": "error"
    },
    {
      "inputs": [],
      "name": "Raffle_TransferFailed",
      "type": "error"
    },
    {
      "inputs": [
        {
          "internalType": "uint256",
          "name": "currentBalance",
          "type": "uint256"
        },
        {
          "internalType": "uint256",
          "name": "numPlayers",
          "type": "uint256"
        },
        {
          "internalType": "uint256",
          "name": "raffleState",
          "type": "uint256"
        }
      ],
      "name": "Raffle_UpkeepNotNeeded",
      "type": "error"
    },
    {
      "anonymous": false,
      "inputs": [
        {
          "indexed": true,
          "internalType": "address",
          "name": "player",
          "type": "address"
        }
      ],
      "name": "RaffleEnter",
      "type": "event"
    },
    {
      "anonymous": false,
      "inputs": [
        {
          "indexed": true,
          "internalType": "uint256",
          "name": "requestId",
          "type": "uint256"
        }
      ],
      "name": "RequestedRaffleWinner",
      "type": "event"
    },
    {
      "anonymous": false,
      "inputs": [
        {
          "indexed": true,
          "internalType": "address",
          "name": "winner",
          "type": "address"
        }
      ],
      "name": "WinnerPicked",
      "type": "event"
    },
    {
      "inputs": [
        {
          "internalType": "bytes",
          "name": "",
          "type": "bytes"
        }
      ],
      "name": "checkUpkeep",
      "outputs": [
        {
          "internalType": "bool",
          "name": "upkeepNeeded",
          "type": "bool"
        },
        {
          "internalType": "bytes",
          "name": "",
          "type": "bytes"
        }
      ],
      "stateMutability": "view",
      "type": "function"
    },
    {
      "inputs": [],
      "name": "enterRaffle",
      "outputs": [],
      "stateMutability": "payable",
      "type": "function"
    },
    {
      "inputs": [],
      "name": "getEntranceFee",
      "outputs": [
        {
          "internalType": "uint256",
          "name": "",
          "type": "uint256"
        }
      ],
      "stateMutability": "view",
      "type": "function"
    },
    {
      "inputs": [],
      "name": "getLastestTimeStamp",
      "outputs": [
        {
          "internalType": "uint256",
          "name": "",
          "type": "uint256"
        }
      ],
      "stateMutability": "view",
      "type": "function"
    },
    {
      "inputs": [],
      "name": "getNumWords",
      "outputs": [
        {
          "internalType": "uint256",
          "name": "",
          "type": "uint256"
        }
      ],
      "stateMutability": "pure",
      "type": "function"
    },
    {
      "inputs": [],
      "name": "getNumberOfPlayers",
      "outputs": [
        {
          "internalType": "uint256",
          "name": "",
          "type": "uint256"
        }
      ],
      "stateMutability": "view",
      "type": "function"
    },
    {
      "inputs": [
        {
          "internalType": "uint256",
          "name": "index",
          "type": "uint256"
        }
      ],
      "name": "getPlayer",
      "outputs": [
        {
          "internalType": "address",
          "name": "",
          "type": "address"
        }
      ],
      "stateMutability": "view",
      "type": "function"
    },
    {
      "inputs": [],
      "name": "getRaffleState",
      "outputs": [
        {
          "internalType": "enum Raffle.RaffleState",
          "name": "",
          "type": "uint8"
        }
      ],
      "stateMutability": "view",
      "type": "function"
    },
    {
      "inputs": [],
      "name": "getRecentWInner",
      "outputs": [
        {
          "internalType": "address",
          "name": "",
          "type": "address"
        }
      ],
      "stateMutability": "view",
      "type": "function"
    },
    {
      "inputs": [],
      "name": "getRequestConfirmations",
      "outputs": [
        {
          "internalType": "uint256",
          "name": "",
          "type": "uint256"
        }
      ],
      "stateMutability": "pure",
      "type": "function"
    },
    {
      "inputs": [
        {
          "internalType": "bytes",
          "name": "",
          "type": "bytes"
        }
      ],
      "name": "performUpkeep",
      "outputs": [],
      "stateMutability": "nonpayable",
      "type": "function"
    },
    {
      "inputs": [
        {
          "internalType": "uint256",
          "name": "requestId",
          "type": "uint256"
        },
        {
          "internalType": "uint256[]",
          "name": "randomWords",
          "type": "uint256[]"
        }
      ],
      "name": "rawFulfillRandomWords",
      "outputs": [],
      "stateMutability": "nonpayable",
      "type": "function"
    }
  ],
  "bytecode": "0x6101606040523480156200001257600080fd5b50604051620017ea380380620017ea8339818101604052810190620000389190620001ad565b858073ffffffffffffffffffffffffffffffffffffffff1660808173ffffffffffffffffffffffffffffffffffffffff1660601b81525050508460a081815250508573ffffffffffffffffffffffffffffffffffffffff1660c08173ffffffffffffffffffffffffffffffffffffffff1660601b815250508360e081815250508267ffffffffffffffff166101008167ffffffffffffffff1660c01b815250508163ffffffff166101208163ffffffff1660e01b815250506000600160146101000a81548160ff02191690836001811115620001195762000118620002b5565b5b0217905550426002819055508061014081815250505050505050506200036b565b6000815190506200014b81620002e9565b92915050565b600081519050620001628162000303565b92915050565b60008151905062000179816200031d565b92915050565b600081519050620001908162000337565b92915050565b600081519050620001a78162000351565b92915050565b60008060008060008060c08789031215620001cd57620001cc620002e4565b5b6000620001dd89828a016200013a565b9650506020620001f089828a0162000168565b95505060406200020389828a0162000151565b94505060606200021689828a0162000196565b93505060806200022989828a016200017f565b92505060a06200023c89828a0162000168565b9150509295509295509295565b6000620002568262000267565b9050919050565b6000819050919050565b600073ffffffffffffffffffffffffffffffffffffffff82169050919050565b6000819050919050565b600063ffffffff82169050919050565b600067ffffffffffffffff82169050919050565b7f4e487b7100000000000000000000000000000000000000000000000000000000600052602160045260246000fd5b600080fd5b620002f48162000249565b81146200030057600080fd5b50565b6200030e816200025d565b81146200031a57600080fd5b50565b620003288162000287565b81146200033457600080fd5b50565b620003428162000291565b81146200034e57600080fd5b50565b6200035c81620002a1565b81146200036857600080fd5b50565b60805160601c60a05160c05160601c60e0516101005160c01c6101205160e01c6101405161140a620003e060003960006107cc015260006106a50152600061068201526000610661015260006106250152600081816102de01526103db01526000818161031b015261036f015261140a6000f3fe6080604052600436106100a75760003560e01c806353a2c19a1161006457806353a2c19a146101895780635f1b0fd8146101b45780636e04ff0d146101df5780638ba05b0e1461021d578063e55ae4e814610248578063fd6673f514610285576100a7565b80630406e322146100ac57806309bc33a7146100d7578063115cbaf5146101025780631fe543e31461012d5780632cfcc539146101565780634585e33b14610160575b600080fd5b3480156100b857600080fd5b506100c16102b0565b6040516100ce9190610f2e565b60405180910390f35b3480156100e357600080fd5b506100ec6102da565b6040516100f99190611010565b60405180910390f35b34801561010e57600080fd5b50610117610302565b6040516101249190610ff5565b60405180910390f35b34801561013957600080fd5b50610154600480360381019061014f9190610de9565b610319565b005b61015e6103d9565b005b34801561016c57600080fd5b5061018760048036038101906101829190610cf9565b610548565b005b34801561019557600080fd5b5061019e61076d565b6040516101ab9190611010565b60405180910390f35b3480156101c057600080fd5b506101c961077c565b6040516101d69190611010565b60405180910390f35b3480156101eb57600080fd5b5061020660048036038101906102019190610d46565b610789565b604051610214929190610f72565b60405180910390f35b34801561022957600080fd5b50610232610836565b60405161023f9190611010565b60405180910390f35b34801561025457600080fd5b5061026f600480360381019061026a9190610d8f565b610840565b60405161027c9190610f2e565b60405180910390f35b34801561029157600080fd5b5061029a610887565b6040516102a79190611010565b60405180910390f35b6000600160009054906101000a900473ffffffffffffffffffffffffffffffffffffffff16905090565b60007f0000000000000000000000000000000000000000000000000000000000000000905090565b6000600160149054906101000a900460ff16905090565b7f000000000000000000000000000000000000000000000000000000000000000073ffffffffffffffffffffffffffffffffffffffff163373ffffffffffffffffffffffffffffffffffffffff16146103cb57337f00000000000000000000000000000000000000000000000000000000000000006040517f1cf993f40000000000000000000000000000000000000000000000000000000081526004016103c2929190610f49565b60405180910390fd5b6103d58282610893565b5050565b7f0000000000000000000000000000000000000000000000000000000000000000341015610433576040517f08c4c9b900000000000000000000000000000000000000000000000000000000815260040160405180910390fd5b60006001811115610447576104466112ea565b5b600160149054906101000a900460ff166001811115610469576104686112ea565b5b146104a0576040517fd6e19a8d00000000000000000000000000000000000000000000000000000000815260040160405180910390fd5b6000339080600181540180825580915050600190039060005260206000200160009091909190916101000a81548173ffffffffffffffffffffffffffffffffffffffff021916908373ffffffffffffffffffffffffffffffffffffffff1602179055503373ffffffffffffffffffffffffffffffffffffffff167f0805e1d667bddb8a95f0f09880cf94f403fb596ce79928d9f29b74203ba284d460405160405180910390a2565b60006105886040518060400160405280600181526020017f2000000000000000000000000000000000000000000000000000000000000000815250610789565b509050806105f75747600080549050600160149054906101000a900460ff1660018111156105b9576105b86112ea565b5b6040517fe059521b0000000000000000000000000000000000000000000000000000000081526004016105ee9392919061102b565b60405180910390fd5b60018060146101000a81548160ff0219169083600181111561061c5761061b6112ea565b5b021790555060007f000000000000000000000000000000000000000000000000000000000000000073ffffffffffffffffffffffffffffffffffffffff16635d3b1d307f00000000000000000000000000000000000000000000000000000000000000007f000000000000000000000000000000000000000000000000000000000000000060037f000000000000000000000000000000000000000000000000000000000000000060016040518663ffffffff1660e01b81526004016106e6959493929190610fa2565b602060405180830381600087803b15801561070057600080fd5b505af1158015610714573d6000803e3d6000fd5b505050506040513d601f19601f820116820180604052508101906107389190610dbc565b9050807fcd6e45c8998311cab7e9d4385596cac867e20a0587194b954fa3a731c93ce78b60405160405180910390a250505050565b6000600163ffffffff16905090565b6000600361ffff16905090565b600060606000600160149054906101000a900460ff1660018111156107b1576107b06112ea565b5b600060018111156107c5576107c46112ea565b5b14905060007f0000000000000000000000000000000000000000000000000000000000000000600254426107f9919061110b565b119050600080600080549050119050600080471190508380156108195750825b80156108225750815b801561082b5750805b955050505050915091565b6000600254905090565b600080828154811061085557610854611319565b5b9060005260206000200160009054906101000a900473ffffffffffffffffffffffffffffffffffffffff169050919050565b60008080549050905090565b60008080549050826000815181106108ae576108ad611319565b5b60200260200101516108c0919061125b565b905060008082815481106108d7576108d6611319565b5b9060005260206000200160009054906101000a900473ffffffffffffffffffffffffffffffffffffffff16905080600160006101000a81548173ffffffffffffffffffffffffffffffffffffffff021916908373ffffffffffffffffffffffffffffffffffffffff1602179055506000600160146101000a81548160ff0219169083600181111561096b5761096a6112ea565b5b0217905550600067ffffffffffffffff81111561098b5761098a611348565b5b6040519080825280602002602001820160405280156109b95781602001602082028036833780820191505090505b50600090805190602001906109cf929190610ac4565b504260028190555060008173ffffffffffffffffffffffffffffffffffffffff16476040516109fd90610f19565b60006040518083038185875af1925050503d8060008114610a3a576040519150601f19603f3d011682016040523d82523d6000602084013e610a3f565b606091505b5050905080610a7a576040517fba31c4f300000000000000000000000000000000000000000000000000000000815260040160405180910390fd5b8173ffffffffffffffffffffffffffffffffffffffff167f5b690ec4a06fe979403046eaeea5b3ce38524683c3001f662c8b5a829632f7df60405160405180910390a25050505050565b828054828255906000526020600020908101928215610b3d579160200282015b82811115610b3c5782518260006101000a81548173ffffffffffffffffffffffffffffffffffffffff021916908373ffffffffffffffffffffffffffffffffffffffff16021790555091602001919060010190610ae4565b5b509050610b4a9190610b4e565b5090565b5b80821115610b67576000816000905550600101610b4f565b5090565b6000610b7e610b7984611087565b611062565b90508083825260208201905082856020860282011115610ba157610ba0611381565b5b60005b85811015610bd15781610bb78882610ccf565b845260208401935060208301925050600181019050610ba4565b5050509392505050565b6000610bee610be9846110b3565b611062565b905082815260208101848484011115610c0a57610c09611386565b5b610c158482856111e8565b509392505050565b600082601f830112610c3257610c3161137c565b5b8135610c42848260208601610b6b565b91505092915050565b60008083601f840112610c6157610c6061137c565b5b8235905067ffffffffffffffff811115610c7e57610c7d611377565b5b602083019150836001820283011115610c9a57610c99611381565b5b9250929050565b600082601f830112610cb657610cb561137c565b5b8135610cc6848260208601610bdb565b91505092915050565b600081359050610cde816113bd565b92915050565b600081519050610cf3816113bd565b92915050565b60008060208385031215610d1057610d0f611390565b5b600083013567ffffffffffffffff811115610d2e57610d2d61138b565b5b610d3a85828601610c4b565b92509250509250929050565b600060208284031215610d5c57610d5b611390565b5b600082013567ffffffffffffffff811115610d7a57610d7961138b565b5b610d8684828501610ca1565b91505092915050565b600060208284031215610da557610da4611390565b5b6000610db384828501610ccf565b91505092915050565b600060208284031215610dd257610dd1611390565b5b6000610de084828501610ce4565b91505092915050565b60008060408385031215610e0057610dff611390565b5b6000610e0e85828601610ccf565b925050602083013567ffffffffffffffff811115610e2f57610e2e61138b565b5b610e3b85828601610c1d565b9150509250929050565b610e4e8161113f565b82525050565b610e5d81611151565b82525050565b610e6c8161115d565b82525050565b6000610e7d826110e4565b610e8781856110ef565b9350610e978185602086016111f7565b610ea081611395565b840191505092915050565b610eb4816111d6565b82525050565b6000610ec7600083611100565b9150610ed2826113a6565b600082019050919050565b610ee68161117a565b82525050565b610ef5816111a8565b82525050565b610f04816111b2565b82525050565b610f13816111c2565b82525050565b6000610f2482610eba565b9150819050919050565b6000602082019050610f436000830184610e45565b92915050565b6000604082019050610f5e6000830185610e45565b610f6b6020830184610e45565b9392505050565b6000604082019050610f876000830185610e54565b8181036020830152610f998184610e72565b90509392505050565b600060a082019050610fb76000830188610e63565b610fc46020830187610f0a565b610fd16040830186610edd565b610fde6060830185610efb565b610feb6080830184610efb565b9695505050505050565b600060208201905061100a6000830184610eab565b92915050565b60006020820190506110256000830184610eec565b92915050565b60006060820190506110406000830186610eec565b61104d6020830185610eec565b61105a6040830184610eec565b949350505050565b600061106c61107d565b9050611078828261122a565b919050565b6000604051905090565b600067ffffffffffffffff8211156110a2576110a1611348565b5b602082029050602081019050919050565b600067ffffffffffffffff8211156110ce576110cd611348565b5b6110d782611395565b9050602081019050919050565b600081519050919050565b600082825260208201905092915050565b600081905092915050565b6000611116826111a8565b9150611121836111a8565b9250828210156111345761113361128c565b5b828203905092915050565b600061114a82611188565b9050919050565b60008115159050919050565b6000819050919050565b6000819050611175826113a9565b919050565b600061ffff82169050919050565b600073ffffffffffffffffffffffffffffffffffffffff82169050919050565b6000819050919050565b600063ffffffff82169050919050565b600067ffffffffffffffff82169050919050565b60006111e182611167565b9050919050565b82818337600083830152505050565b60005b838110156112155780820151818401526020810190506111fa565b83811115611224576000848401525b50505050565b61123382611395565b810181811067ffffffffffffffff8211171561125257611251611348565b5b80604052505050565b6000611266826111a8565b9150611271836111a8565b925082611281576112806112bb565b5b828206905092915050565b7f4e487b7100000000000000000000000000000000000000000000000000000000600052601160045260246000fd5b7f4e487b7100000000000000000000000000000000000000000000000000000000600052601260045260246000fd5b7f4e487b7100000000000000000000000000000000000000000000000000000000600052602160045260246000fd5b7f4e487b7100000000000000000000000000000000000000000000000000000000600052603260045260246000fd5b7f4e487b7100000000000000000000000000000000000000000000000000000000600052604160045260246000fd5b600080fd5b600080fd5b600080fd5b600080fd5b600080fd5b600080fd5b6000601f19601f8301169050919050565b50565b600281106113ba576113b96112ea565b5b50565b6113c6816111a8565b81146113d157600080fd5b5056fea2646970667358221220b875cbe34e510124b58355b7ed20d662f6ebf8fe2ec859c66d872ea94b4b735564736f6c63430008070033",
  "linkReferences": {},
  "deployedLinkReferences": {}
}